:10000000803102288731D72F7830210099009A015A
:100010009801183097000800C630F6008D30F700C0
:100020009C31DB248031A030F0000030F10014302E
:10003000F2000030F3009231E4228031E230F60029
:100040008D30F7009C31DB248031B430F00000307B
:10005000F1003230F2000030F3009231E4228031BE
:10006000B4302000A2000030A300FE30A4008E3087
:10007000A50093317A23803100302000A2000030A7
:10008000A300FF30A4008E30A50093317A23803185
:1000900000302000A2000030A300FF30A4008E300A
:1000A000A50093317A238031200023082100E70046
:1000B000200022082100E6000230F0000030F100AC
:1000C0009D31D925803121006708F1006608F000D4
:1000D0009E31C626803170087104031D8C2889303A
:1000E0002000B0008E30B1000230B8003808B200F5
:1000F0009F318E278031BD302000B0008E30B1009E
:100100000530B8003808B2009F318E27D330200068
:10011000B7008D30B8000800210067082000B80043
:10012000210066082000B70008008A30F6008D30F4
:10013000F7009C31DB248031A030F0000130F10069
:100140004330F2000030F3009231E4228031A030DD
:100150002000A2000130A300FE30A4008E30A500D4
:1001600093317A23803100302000A2000030A300B8
:10017000FF30A4008E30A50093317A238031003007
:100180002000A2000030A300FF30A4008E30A500A4
:1001900093317A23803100302000A2000030A30088
:1001A000FF30A4008E30A50093317A2380310030D7
:1001B0002000A2000030A300FF30A4008E30A50074
:1001C00093317A23803120002308BC002208BB0031
:1001D0003C08F1003B08F0009E31C62680317008D3
:1001E0007104031D0B29C4302000B0008E30B10013
:1001F0000230B8003808B2009F318E2780310330BA
:10020000F0000030F1009D31D925D3302000B70037
:100210008D30B800080006302000B0008E30B100EC
:10022000B2019F318E27803120003B0886003C08B8
:10023000870041312B300106031D2D293B08023E6A
:10024000B80000303C3DB9003808B0003908B100B2
:10025000B2010330BA003A08362920003C08B10048
:100260003B08B000B2010330B8003808B300903149
:100270009B2020003C08B8003B08B7000800003075
:100280009031002081318031952081312000380863
:10029000D6003708D500D530B0008E30B1005A30C6
:1002A000D2005208B2000630D3005308B300903198
:1002B000732081310A302000B0008F30B1007030DF
:1002C000D2005208B2000630D3005308B300903178
:1002D0007320813105302000D4000F30D300F4307A
:1002E000D200D20B7129D30B7129D40B7129640070
:1002F00020008D1BC8296B08031D8029013081292E
:100300000030D2005208EB006B08031D9B29083017
:10031000B0008F30B1005A30D2005208B20006301F
:10032000D3005308B3009031732081310A3020008C
:10033000B0008F30AF29D5302000B0008E30B10032
:100340005A30D2005208B2000630D3005308B3002E
:100350009031732081310C302000B0008F30B1001B
:100360007030D2005208B2000630D3005308B300F8
:1003700090317320813105302000D4000F30D3003C
:10038000F430D200D20BC229D30BC229D40BC2291C
:1003900020000D1BCE296B08031DD9295608F1003A
:1003A0005508F0009E31C626813170087104031D86
:1003B000DC299E31E426080020006B0803190D1B80
:1003C00077295608F9005508F80092313C2281310E
:1003D0003E302000B0008E30B1000630D20052080E
:1003E000B2009F318E2781310230F0000030F100E1
:1003F0009D31D92581319E31E4260800AD30F600CB
:100400008E30F7009C31DB2481313730F000003032
:10041000F1001430F2000030F3009231E422813117
:1004200037302000A2000030A300FE30A4008E3040
:10043000A50093317A23813100302000A2000030E2
:10044000A300FF30A4008E30A50093317A238131C0
:1004500020002308CC002208CB004C08F7004B08F2
:10046000F60094318F24813177082000CE00760881
:10047000CD004D084E040319422A63304D064E0448
:10048000031D4A2AE930B0008E30B1009F31252784
:100490000030080020004D034E04031D562AE330AF
:1004A000B0008E30B1009F312527813120004E08E9
:1004B000803AB60080303602031D602A02304D02B9
:1004C000031C762A20004E08803AB600803036029F
:1004D000031D6C2A04304D020318762ADD302000FB
:1004E000B0008E30B1009F312527813120004E08A9
:1004F000803AB60080303602031D802A04304D0257
:10050000031C962A20004E08803AB600803036023E
:10051000031D8C2A07304D020318962AD73020007D
:10052000B0008E30B1009F312527813120004E0868
:10053000803AB60080303602031DA02A07304D02F3
:10054000031CB62A20004E08803AB60080303602DE
:10055000031DAC2A15304D020318B62AD1302000F5
:10056000B0008E30B1009F312527813120004E0828
:10057000803AB60080303602031DC02A15304D0285
:10058000031CD52A20004E08803AB600803036027F
:10059000031DCC2A20304D020318D52ACB30200071
:1005A000B0008E30B1009F31252701300800A53002
:1005B000F6008E30F7009C31DB2482313830F000B9
:1005C0000030F1001F30F2000030F3009231E422DD
:1005D000823138302000A2000030A300FE30A40099
:1005E0008E30A50093317A23823100302000A200A2
:1005F0000030A300FF30A4008E30A50093317A2391
:10060000823100302000A2000030A300FF30A4009F
:100610008E30A50093317A23823120002308D80040
:100620002208D7005808F7005708F60094318F24A5
:10063000823177082000DA007608D9009330B000C4
:100640008E30B1000630B7003708B2009F318E27D8
:10065000823120005808B1005708B0009131A42120
:10066000823120005A08803AB70080303702031DDB
:100670003B2B10305902031C512B20005A08803AA2
:10068000B70080303702031D472B1A305902031878
:10069000512BCF302000B0008E30B1009131D521E8
:1006A000823120005A08803AB70080303702031D9B
:1006B0005B2B1A305902031C712B20005A08803A18
:1006C000B70080303702031D672B333059020318FF
:1006D000712BD5302000B0008E30B1009131D52182
:1006E000823120005A08803AB70080303702031D5B
:1006F0007B2B33305902031C912B20005A08803A7F
:10070000B70080303702031D872B4C305902031885
:10071000912B08302000B0008F30B1009131D521ED
:10072000823120005A08803AB70080303702031D1A
:100730009B2B4C305902031C080020005A08803AB9
:10074000B70080303702031DA72B6530590203180C
:1007500008000A302000B0008F30B1009131D5215F
:100760000800210017148031042083318F311427B1
:1007700083319D31702583319D31152583319C3125
:10078000E92483319631DE2683319331CC238331C2
:100790006400FA30F6008E30F7009C31DB248331A0
:1007A0000130F0000030F1009D31D92583319D31B9
:1007B000A12583310130F0000030F1009D31D925B1
:1007C00083319D31B2258331210017109C31D5240E
:1007D0008331B5302000B0008E30B1000330DB0033
:1007E0005B08B2009F318E27833104302000DB008C
:1007F0005B08F2000430DC005C08F30003309F313A
:10080000472783310430F0000030F1009D31D925B5
:1008100083319C31C92483310030903100208331F1
:100820002100171464008131FE218331003A031D39
:100830002D2C0130F0000030F1009D31D92583319D
:10084000D4302000B0008D30B1000330DB005B08F5
:10085000B2009F318E278331122C64009531E82538
:1008600083319431FB2483319031C3208331803133
:100870000C208331200038082200C60020003708F1
:100880002200C5008D304606031D482CD330450696
:1008900003192D2C0130F0000030F1006430F2001B
:1008A0000030F3009231A62283319E31E426833159
:1008B00064000B1D722C01302000E2070030E33D84
:1008C0003D3062066304031D712CE201E3018231B5
:1008D000D722833120006708031D712C8131FE214E
:1008E00083310B1120006E0803190D1B9F2C670824
:1008F00003197D2C9D31A125833120006608031D3D
:10090000832C0130842C0030DB005B08E600660895
:1009100003198E2C963163268331912C9D317F25CE
:10092000833107302000DD001730DC006F30DB0042
:10093000DB0B982CDC0B982CDD0B982C00009531F0
:10094000E82583319431FB2483319031C3208331F6
:1009500020008E1C582C66080319582C95317025E0
:100960008331582C2000B2000230A6002608AF00C8
:10097000B101AE01CA2C1230A6002608B100103019
:10098000C62C7730A6002608B1003030A600260815
:10099000AE00D22C32080C3A0319C12C023A0319CA
:1009A000BB2CD22C31088038A6002608F400023077
:1009B0009D315325843180302000A6002608F600A2
:1009C00004309D316125843180302000A600260846
:1009D000F6000A309D3138258431F40101309D3113
:1009E000532584312000B301B4012208A600A701D9
:1009F00027083402031DFE2C260833020318142D89
:100A00003308200786003408213D87000108A6002E
:100A10002608F40009309D3153258431013020002F
:100A2000B3070030B43DF52C3208A6002608F400C8
:100A300001309D31532584310C3020003206031DD6
:100A4000292D8030A6002608F6000D309D3138256E
:100A50008431FF302000B300FF30B40004309D31FA
:100A6000C42584312000A6002608B5000130B30259
:100A70000030B43B33083404031D3518432D3508CA
:100A80002E0503192E2D8030A6002608F6000D3005
:100A90009D31612584312000330834040319E62D8B
:100AA00006309D31C42584311B39031DE12D200002
:100AB000AF0131083505A600261C602DAF01AF0A35
:100AC0000C303206031DE62D0A309D31C4258431D9
:100AD0002000A6002608B5000C309D31C4258431C5
:100AE00007392000A6002608B00030080319982D09
:100AF0003008A600A7013508A800A901A835A90D4E
:100B0000A835A90DA835A90D26082807AA00270889
:100B1000293DAB002A08F83EAC00FF302B3DAD006C
:100B20002508860087012C08C03F2D08C13FA82D4D
:100B30003508A600A701A635A70DA635A70DA63531
:100B4000A70D2508860087012608C03F2708C13F5A
:100B50003508031DAD2DB501B50A11303502031C52
:100B6000B52D1030A6002608B500B301B401350834
:100B7000A600A70127083402031DC02D2608330252
:100B80000318D92D09309D31C42584312000A600D9
:100B900033082307A7003408243DA800270886004F
:100BA00028088700260881000130B3070030B43DD3
:100BB000B72D3308230786003408243D87008101C0
:100BC000E62D02302000A6002608AF002F080800FE
:100BD00024302000A6002608AB002308A700220826
:100BE000A600A20A0319A30A260884002708850084
:100BF0000008A8002808B20032080319D02F2530B9
:100C0000320603190E2E20088600210887003208BC
:100C100081000130A0070030A13DED2DB001B101F0
:100C2000AF01172E2F150130A2070030A33D220877
:100C30008400230885000008303A0319122E202E64
:100C4000220884002308850000089D314525853150
:100C5000031C5F2E2000B001B1010A30F00000300B
:100C6000F10020003108F3003008F2009E315426D4
:100C7000853171082000B1007008B000220884009E
:100C8000230885000008D03EA600FF30031800307E
:100C9000A7002608B0072708B13D0130A2070030A1
:100CA000A33D220884002308850000089D314525C6
:100CB0008531031C5F2E2D2E2000AF177D2E2000C6
:100CC0002308A7002208A600A20A0319A30A2608DF
:100CD0008400270885000008B200003A0319D02FCD
:100CE000583A03195C2E3C3A03197D2E0D3A03192C
:100CF0007D2E113A03195C2EED2D2000AF1B972E8F
:100D00002B0886008701403FAD00413FAE00023016
:100D1000A6002608AB07AE1FE72E0330A600260864
:100D2000AF04AD09AE09AD0A0319AE0AE72E2B08D0
:100D300086008701403FAD00413FAE000230A60073
:100D40002608AB07E72EB201B20A053032060319B6
:100D5000F02E3208A600A701A635A70D0030260701
:100D600084008830273D8500003FA800013FA9008E
:100D700029082E02031DBE2E28082D02031CF02E6A
:100D80000130A6002608B207A52EB201B20A04302F
:100D900032060319F02E3208A600A701A635A70DCA
:100DA0000A30260784008830273D8500003FA800D0
:100DB000013FA90029082E02031DE02E28082D025C
:100DC000031CF02E0130A6002608B207C72E2F08FC
:100DD0008039003A0319A32E803A0319C52EF02E4C
:100DE000300831040319FC2E2F0803390319FC2E97
:100DF000FF30B007FF30B13D3208A600A701A61BA7
:100E0000A7032708803AA8003108803A2802031D6A
:100E10000B2F300826020318182F20003208A600D6
:100E2000A701A61BA7032608B0022708B13B1B2F6A
:100E30002000B001B1012F1D3E2F2F0803390319E7
:100E40002B2F20088600210887002D3081000130DB
:100E5000A0070030A13D300831040319622F20089B
:100E6000860021088700303081000130A007003063
:100E7000A13DFF30B007FF30B13D2B2F30083104CA
:100E80000319542F20088600210887002030810094
:100E90000130A0070030A13DFF30B007FF30B13D69
:100EA00030083104031D422F2F0803390319622F24
:100EB00020088600210887002D3081000130A0071E
:100EC0000030A13D3208A6002608AC00BF2F0A3032
:100ED000F8000030F9002C08A600A701A635A70DE0
:100EE0000030260784008830273D8500003FF00051
:100EF000013FF1002E08F3002D08F2009231082284
:100F000085317108FB007008FA0091311821853194
:100F10007808303E2000A8002808B42F2C08A6002E
:100F2000A701A635A70D0A30260784008830273D83
:100F30008500003FF000013FF1002E08F3002D086E
:100F4000F20092310822853170080F392000A80084
:100F50002808AA002A08B53E84008D300318013EF7
:100F600085000008A6002608B20020088600210897
:100F70008700320881000130A0070030A13DFF301A
:100F8000A6002608AC072C0A0319ED2D2F0880397E
:100F9000003A0319672F803A03198E2FB52FB52F0A
:100FA0002000200886002108870081010800210018
:100FB0009C31C3248731EE009C31C4248731EF007B
:100FC0005E3084000030850012308F310E2787316B
:100FD000E801E901EA01EB01EC01ED0120308400B8
:100FE0000130850025308F310E278731A0308400F5
:100FF0000130850043308F310E2720008331B12B23
:10100000013400340A34003464340034E8340334E6
:1010100010342734013400341034003400340134E7
:101020000034103400340034383400343C3400349C
:101030000E3400340634003406346F3486346F3492
:10104000C6340134EE3400347C3400343834003497
:1010500000340034003400340034003400340034F0
:1010600000340034003400340034003400340034E0
:1010700000340034003400340034003400340034D0
:1010800000340034003400340034703400347E34D2
:10109000C0340F34F8340D343E340C343E340C3448
:1010A000F8340D34C0340F3400347E3400347034DE
:1010B0000034003400340034FE347F34FE347F3496
:1010C00086346134863461348634613486346134E4
:1010D000CE346134FC34733478343F3400341E34FD
:1010E0000034003400340034E0340734F8341F3462
:1010F0001C3438340E3470340634603406346034B2
:10110000063460340E3470341C34383418341834D7
:101110000034003400340034FE347F34FE347F3435
:101120000634603406346034063460340634603487
:101130000E3470341C343834F8341F34E03407343F
:101140000034003400340034FE347F34FE347F3405
:101150008634613486346134863461348634613453
:101160008634613486346134063460340634603445
:101170000034003400340034FE347F34FE347F34D5
:1011800086340134863401348634013486340134A3
:101190008634013486340134063400340634003495
:1011A0000034003400340034E0340734F8341F34A1
:1011B0001C3438340E347034063460348634613470
:1011C00086346134863461348E347F348C347F3499
:1011D0000034003400340034FE347F34FE347F3475
:1011E000803401348034013480340134803401345B
:1011F0008034013480340134FE347F34FE347F3453
:10120000003400340034003400340034003400343E
:101210000634603406346034FE347F34FE347F3468
:101220000634603406346034003400340034003452
:10123000003400340034003400341C3400343C34B6
:10124000003470340034603400346034003460346E
:101250000034603400347034FE343F34FE340F34D4
:101260000034003400340034FE347F34FE347F34E4
:1012700080340134C0340334E034073470340E3425
:1012800038341C341C3438340E3470340634603432
:101290000034003400340034FE347F34FE347F34B4
:1012A000003460340034603400346034003460341E
:1012B000003460340034603400346034003460340E
:1012C0000034003400340034FE347F34FE347F3484
:1012D0003C340034F0340034C0340334C0340334BC
:1012E000F03400343C340034FE347F34FE347F3438
:1012F0000034003400340034FE347F34FE347F3454
:101300001C34003470340034E03401348034073449
:1013100000340E3400343834FE347F34FE347F34ED
:101320000034003400340034E0340734F8341F341F
:101330001C3438340E34703406346034063460346F
:101340000E3470341C343834F8341F34E03407342D
:101350000034003400340034FE347F34FE347F34F3
:1013600006340334063403340634033406340334B9
:10137000063403348E340334FC340134F83400343E
:101380000034003400340034E0340734F8341F34BF
:101390001C3438340E3470340634603406346C3403
:1013A0000E347C341C343834F8347F34E034673401
:1013B0000034003400340034FE347F34FE347F3493
:1013C00006340334063403340634073406340F3449
:1013D00006341F348E343B34FC347134F8346034BA
:1013E000003400340034003478341834FC34383499
:1013F000CE34713486346134863461348634613459
:10140000863461348E3473341C343F3418341E34C3
:101410000034003400340034003400340634003426
:101420000634003406340034FE347F34FE347F3416
:1014300006340034063400340634003400340034FA
:101440000034003400340034FE340F34FE343F34B2
:10145000003470340034603400346034003460345C
:101460000034603400347034FE343F34FE340F34C2
:1014700000340034003400340E3400347E34003440
:10148000F034033480341F3400347C3400347C3432
:1014900080341F34F03403347E3400340E3400348E
:1014A0000034003400340034FE347F34FE347F34A2
:1014B0000034383400340C3400340734003407343A
:1014C00000340C3400343834FE347F34FE347F343E
:1014D0000034003400340034063460341E34783470
:1014E00038341C3460340634C0340334C03403341C
:1014F0006034063438341C341E3478340634603496
:101500000034003400340034063400341E34003417
:1015100078340034E034013480347F3480347F34D4
:10152000E0340134783400341E340034063400349E
:101530000034003400340034063460340634783427
:1015400006347C340634663486346334C6346134FD
:10155000663460343E3460341E34603406346034A3
:10156000003400340034003400340034803401345A
:101570008034013480340134F0340F34F0340F34CB
:101580008034013480340134803401340034003438
:101590000034003400340034F0340F34FC343F3471
:1015A0000C343C3406346634063463348634613497
:1015B000C6346034663460343C343034FC343F34F8
:1015C000F0340F3400340034003400341834603404
:1015D000183460341C346034FE347F34FE347F347D
:1015E000003460340034603400346034003400343B
:1015F0000034003400340034383460343C34703407
:101600000E34783406347C3406346E340634673451
:1016100086346334C6346134EE3460347C346034F0
:101620003834603400340034183418341C343834FE
:101630000E347034863461348634613486346134D7
:101640008634613486346134CE347334FC343E34B1
:1016500078341C340034003480340734C034073408
:10166000E034063470340634383406341C3406341E
:101670000E340634FE347F34FE347F3400340634B6
:1016800000340634003400347E341834FE343834E8
:10169000C6347034C6346034C6346034C634603402
:1016A000C6346034C6346034C634713486343F3452
:1016B00006341F340034003480341F34E0343F34A7
:1016C000F0347334B83461349C3461348E34613412
:1016D00086346134863461348634733400343F3464
:1016E00000341E3400340034063400340634003430
:1016F00006340034063460340634783406341E343C
:1017000086340734E63401347E3400341E34003429
:10171000063400340034003400341E3478343F344E
:10172000FC347334CE3461348634613486346134AD
:1017300086346134CE346134FC34733478343F34CD
:1017400000341E340034003478340034FC34003467
:10175000CE346134863461348634613486347134F5
:101760008634393486341D34CE340F34FC34073497
:10177000F83401348F34F134C1348334FD34BF3450
:10178000FD34BF343C343C341C3438348E34713432
:10179000CF34F334CF34F3348E3471341C343834D2
:1017A0003C343C34FD34BF34FD34BF34C134833465
:1017B0008F34F13480340134C0340334FC343F348A
:1017C000FC343F343C343C341C3438340E347034F4
:1017D0000F34F0340F34F0340E3470341C34383499
:1017E0003C343C34FC343F34FC343F34C0340334A8
:1017F000803401340034003400340034E0340034E8
:10180000C0340134803403340034073400340E34DF
:101810000034073480340334C0340134E0340034FD
:1018200070340034383400341C3400340034003454
:10183000003400341F34F83401348034E13480340F
:10184000C1348134813483340034073400340E349D
:101850000034073480340334C0340134E0340034BD
:1018600071348034393480341D3480340134803410
:101870001F34F83400340034003400340C34303475
:101880001C34383438341C3470340E34E0340734AB
:10189000C0340334C0340334E034073470340E34BD
:1018A00038341C341C3438340C34303400340034B4
:1018B000003400341F34F834013480340D34B03433
:1018C0001D34B83439349C3470340E34E034073469
:1018D000C0340334C0340334E034073470340E347D
:1018E00039349C341D34B8340D34B0340134803470
:1018F0001F34F83400340034FF340734073405341F
:101900008D340434593404343134043461340434AF
:10191000C13404346134043431340434593404346B
:101920008D34043407340534FF3407340034003474
:10193000003400347C347C34FF340134013401340D
:1019400001340134013401340134013401340134EF
:10195000013401340134013401340134FF347C3466
:101960007C34FF3401340134013401340134013456
:1019700001340134013401340134013401347D3443
:101980007D347D340134FF347C347C34FF340134C5
:10199000013401340134013401340134013401349F
:1019A0007D347D347D3401347D347D347D340134A7
:1019B000FF347C347C34FF3401340134013401348D
:1019C00001347D347D347D3401347D347D347D3487
:1019D00001347D347D347D340134FF347C347C34F7
:1019E000FF3401347D347D347D3401347D347D34E5
:1019F0007D3401347D347D347D3401347D347D3457
:101A00007D340134FF3400340034013401340134B6
:101A1000013401340134013401340134013401341E
:101A2000013401340134013401340134013401340E
:101A30002334133408346434623400343E34513473
:101A4000493445343E340034003442347F34403429
:101A50000034003442346134513449344634003463
:101A60002134413445344B34313400341834143487
:101A700012347F341034003427344534453445342F
:101A8000393400343C344A34493449343034003435
:101A900001347134093405340334003436344934A4
:101AA000493449343634003406344934493429340D
:101AB0001E340034FC3400347834003430340034C4
:101AC00030340034FF340334FE340134FC34003449
:101AD0007834003478340034783400347834003486
:101AE00078340034303400340034003400340034AE
:101AF0000034003400343C347E347E347E347E3412
:101B00003C34003400343C3466344234423466346D
:101B10003C340034413454342B3443344D34473452
:101B20004C343D342234523445344334203455341B
:101B30004E34523445344134443422342C3430341D
:101B40000A3400342C343134323439342C342234D5
:101B5000423469346B346534203441346C3461343C
:101B600072346D3422340A34003430343134323437
:101B7000333434343534363437343834393441340A
:101B800042344334443445344634003441345434CC
:101B90002B3443345034423453343D3422345334A0
:101BA0004D3422340A340034433448344534433409
:101BB0004B3440344E344534543457344F3452341B
:101BC0004B340034413454342B3443345034423495
:101BD00052343D34313430340A34003441345434D6
:101BE0002B344334533443344C344B343D3432344B
:101BF0000A340034413454342B34433450344234A6
:101C000057343D34313430342C340034533441347F
:101C1000563445344034503448344F344E344534CF
:101C20003F340034413454342B3443344D3447343E
:101C300046343D3431340A340034413454342B3486
:101C40004334463455344E343D3431340A34003450
:101C5000413454342B344334463455344E343D34BB
:101C600034340A340034413454342B344334533440
:101C70004D3449344E3453340A34003453344134EF
:101C80005634453444344034403440344034403495
:101C9000003441344C3445345234543440344034AC
:101CA000403440344034003441344C3441345234B4
:101CB0004D3440344F344E34403440340034413499
:101CC0004C34413452344D3440344F34463446342D
:101CD00040340034413430344234413437344434B5
:101CE00035343934333445340034423441344434A7
:101CF0004734453440344034403440340034573461
:101D000045344C3443344F344D34453440344034FE
:101D100000345334453454344034503448344F3410
:101D20004E34453400344034403440344034403440
:101D3000403440344034003453344D345334403410
:101D4000533445344E3454340034413454342B34F9
:101D50004334423443340A340034413454342B3451
:101D60004334533451340A340034573445344C34FA
:101D700043344F344D34453400344E3455344D34AF
:101D800042344534523400344E344F3440345334AA
:101D90004D3453340034313431343134313431340E
:101DA000003431343134313431343234003431346C
:101DB0003134313432343234003431343134323429
:101DC0003234323400343134323432343234323416
:101DD0000034323432343234323432340034453424
:101DE000523452344F345234003425343034323487
:101DF00064340034413454340A34003420342C34F4
:101E000000342534583400342F3400343034003456
:101E10003334003434340034353400346400800109
:101E20000131890B0F2F003422008C018D018E01AE
:101E3000233021008C00F0308D0002308E00033002
:101E400023008C008D018E0124008C018D018E01F8
:101E50002100951700308B1B0130F0008B1355309B
:101E60003C008F00AA308F000F102108E0390538A0
:101E7000A1002408E0390C38A4003D001D08E03919
:101E800014389D002308E0391238A3003C002008D4
:101E9000E0391638A0003D002608E0391038A600C9
:101EA00055303C008F00AA308F000F14701C5A2F41
:101EB0008B1708008B1308002000A0007808FA0098
:101EC0007A08A4007908FA007A08A30021006908BA
:101ED0002000DF00210068082000DE006D08FA0005
:101EE000FB01FA09FB09FA0A0319FB0A20087A0721
:101EF000A7007B0803187B0AA8006F08FA00FB0103
:101F00007A08F0007B08F1006808FC00FD017C08FD
:101F1000F2007D08F3009E3154268F3171082000B5
:101F2000A2007008A1002208F1002108F000280892
:101F3000F3002708F2009E3154268F3171082000EB
:101F4000A8007008A700A501A60128082602031D05
:101F5000AB2F270825020318B62F0130DE0700300B
:101F6000DF3D0130A5070030A63DA52FA501A60144
:101F70006F08FA00FB017B082602031DC12F7A08B7
:101F80002502031808007908FA007A08A300A701BF
:101F9000A8016808FA00FB017B082802031DD22F64
:101FA0007A0827020318F72F803024020318E92F3C
:101FB0002308FA007A08F20024089031EC208F31CF
:101FC00020005E0884005F08850000089D310B2515
:101FD0008F310130FA007A082000A3070130DE07B4
:101FE0000030DF3D0130A7070030A83DC92F013088
:101FF000FA007A08A4070130A5070030A63DB82FE3
:10200000F900FB0108307B02031808007B08F80088
:102010007808F20000309031EC209031FA018030E5
:102020007A0203181F2879089D310B259031013061
:10203000F8007808FA0780307A02031C1328013070
:10204000F8007808FB070228F4002E280130F2007F
:102050007208F4070130F0070030F13D7408860083
:10206000870170088400710885000008FF3A013E6E
:102070000107F2007208F3007308031D4528740875
:10208000860087010108031D26287308F000F1016E
:10209000F01BF1030800200021082100E9002000C6
:1020A00020082100E80020002208F9007908EF004C
:1020B0000830F0000030F1002308F900FA01790837
:1020C000F2007A08F300933129237008FB007B08A3
:1020D0002000E8002408F9007908ED002508F9003F
:1020E0007908EC000800BA302000A0008B30A10075
:1020F0001030B4003408A2001030B5003508A30039
:102100003030B6003608A4003130B7003708A500DB
:1021100090314B20903120003108AA003008A900EE
:102120003208B4003408AB003308B5003508AC0001
:102130009F31D9270800B2302000A0008A30A100CA
:102140000C30B4003408A2001030B5003508A300EC
:102150002F30B6003608A4003930B7003708A50084
:1021600090314B20903120003108AA003008A9009E
:102170003208B4003408AB003308B5003508AC00B1
:102180009F31D927080020008E1CCC286E08031D23
:10219000CC289C31D5249031200060036104031DBC
:1021A000DA289C31D12490312000EE01EE0A9E31D4
:1021B0006F26903120006108803AB70080303702E6
:1021C000031DE42801306002031C0800FF302000DA
:1021D000E007FF30E13D0800F60076080F39F30014
:1021E0007308F5007608F3000430F336890BF52800
:1021F00073080F39F4007408F70077081038F300FB
:102200007308F70072080739F3007308F2007208C8
:10221000B038F3007308F20075089D310125903144
:1022200077089D310125903172089D310125080004
:102230007808790403193F29FD01FD0AF91B2A29B1
:102240000130F835F90D890B21290130FC007C089B
:10225000FD071E2979087B02031D302978087A02C0
:10226000031C36297808FA027908FB3B0130F9365D
:10227000F80C890B37290130FD02031D2A297B0840
:10228000F9007A08F80008002000A001A1015129F6
:102290000130F7070030F83D01302000A007003082
:1022A000A13D7708860078088700010803196E2988
:1022B0007A08F1007908F00077088600780887002E
:1022C0000108FB00FC017B08F2007C08F3009E3152
:1022D000072691317008710403194829200021084C
:1022E000F8002008F70008002000A001A1018129C2
:1022F0000130F7070030F83D01302000A007003022
:10230000A13D7708860078088700010803199E29F7
:102310007A08F1007908F0007708860078088700CD
:102320000108FB00FC017B08F2007C08F3009E31F1
:102330000726913170087104031D782920002108B7
:10234000F8002008F700080020003108F1003008EC
:10235000F0000430F2008F30F3009F31B327913149
:1023600018302000A0008D30A1000630B2003208E5
:10237000A2000830B3003308A3002F30B4003408A3
:10238000A4003A30B5003508A50090314B209131BA
:1023900020003108AA003008A9005630B2003208E7
:1023A000AB00AC019F31D92708009A302000A00073
:1023B0008C30A1001530B2003208A2000830B30002
:1023C0003308A3003030B4003408A4003430B50022
:1023D0003508A50090314B20913120003108AA002A
:1023E0003008A9006B30B2003208AB00AC019F315D
:1023F000D92791310C302000A9008F30AA006B3012
:10240000B2003208AB00AC01AC0A9F31D9270800FA
:10241000F601F701700871040319372AF501F50A6E
:10242000F11B1C2A0130F035F10D890B132A013004
:10243000F4007408F507102A0130F635F70D890B02
:102440001D2A71087302031D272A70087202031CDB
:102450002E2A7008F2027108F33B76140130F1362F
:10246000F00C890B2F2A0130F502031D1C2A770876
:10247000F1007608F0000800FA30F0008D30F1002D
:10248000A0309E313A269231A030F0000030F100A9
:102490007908F3007808F2009F31B3279231A23017
:1024A000F0008D30F10020309E313A269231A0307C
:1024B000F0000030F1002030F2000030F3009F31D6
:1024C000B3279231C630F6008D30F7009C31DB2403
:1024D0009231A030F6000030F7009C31DB24080078
:1024E0002000B7000730FA007A08F4000D309D3163
:1024F0005325923120003708FA00360886008701FC
:102500007A0881003608A0000030A100A201A20ACA
:102510003608A3000030A4003930FA007A08A5007C
:102520000C308431B2249231FB007B082000B800CB
:102530003808031DA02A103039063A040319A42ACA
:102540000230FA007A08B80038080800F601F701EE
:102550007708803AF4007108803A7402031DB22AA9
:10256000700876020318E12AF801F9017908803A27
:10257000F4007308803A7402031DC02A72087802BE
:102580000318D32A20000E14AD30F400F40BC62A31
:1025900020000E10AD30F400F40BCC2A0130F80707
:1025A0000030F93DB62A6830F500E430F400F40B51
:1025B000D72AF50BD72A00000130F6070030F73D87
:1025C000A82A20000E1408009D3120259231F40025
:1025D0007008860071088700740881000130F700D8
:1025E0000030F80073087802031DF82A7208770299
:1025F000031808009D3120259231F40077087007F8
:10260000F5007808713DF6007508860076088700A9
:10261000740881007708FF3EF400FF30783DF50034
:102620007408700786007508713D87004F300106F9
:10263000031D242B7708700786007808713D8700FA
:102640004B300106031908000130F7070030F83D50
:10265000F22AF601F11F332BF009F109F00A0319F0
:10266000F10AF601F60AF31F3E2BF209F309F20A0A
:102670000319F30A0130F4007408F606F701F801B3
:102680007008710403196D2BF501F50AF11B522B2B
:102690000130F035F10D890B492B0130F40074083D
:1026A000F507462B0130F735F80D890B532B7108D0
:1026B0007302031D5D2B70087202031C642B7008EB
:1026C000F2027108F33B77140130F136F00C890BFC
:1026D000652B0130F502031D522B76080319752B6B
:1026E000F709F809F70A0319F80A7808F1007708DA
:1026F000F0000800200022082304031D832B650836
:10270000A3006408A20022082304031D8A2BA2014F
:10271000A30108002308F8002208F7002508FA00A2
:102720002408F90091317421933177082000A20721
:102730007808A33D22088600230887000108031DAE
:10274000A62BE401E501A201A30108002308F8007B
:102750002208F7002508FA002408F90091314421E5
:102760009331770820002207E4007808233DE50034
:10277000640886006508870001080319C92B6408EE
:1027800086006508870081010130E4070030E53DDF
:102790000800E401E501080020000C155230F600A5
:1027A0007608F1001F309E31A82693310B309F31FF
:1027B0006A279331F6007608F70000309F316A27C8
:1027C0009331F6007608F7002C309F316A27933159
:1027D000F6007608F700FA30F6007608F1002030AF
:1027E0009E31A8269331F10121309E31A8269331E4
:1027F0000A30F6007608F10022309E31A826933187
:102800009630F6007608F10023309E31A8269331E9
:10281000F10124309E31A8269331F101F10A2530CF
:102820009E31A82693313F30F6007608F10027301C
:102830009E31A82693314030F6007608F1002B3007
:102840009E31A82693310A30F6007608F1002D302B
:102850009E31A82608002000BB00B601F4010D300F
:102860009D31532594319330FA0020003B088600B7
:10287000013087007A0881002030FA003B0A860088
:10288000013087007A0881000830FA007A08F600E3
:1028900008309D316125943120003B08A0000130B3
:1028A000A1000230FA007A08A2003B08A300013020
:1028B000A4003730FB007B08A5000C308431B22423
:1028C0009431FC007C082000B9003908031D8D2CD0
:1028D000BA0104303A020318802C3A083B07FA0088
:1028E0007A088600013087000108FB007B08B606E5
:1028F0000130FA007A08BA0704303A02031C6D2C42
:102900003B08043E860001308700010836060319A3
:102910008D2C0230FA007A08B900390808007608D0
:1029200086007708870020300106031D9C2C0130AB
:10293000F6070030F73D8F2C760886007708870071
:10294000093001060319972CFB01FC01FA017608F6
:102950008600770887002D300106031DB42C013056
:10296000F8007808FA07BC2C7608860077088700FC
:102970002B300106031DC02C0130F6070030F73D57
:10298000760886007708870001089D314525943137
:10299000031CE72C7C08F1007B08F0000A30F200F1
:1029A0000030F3009E315426943176088600770873
:1029B000870001087007F80071080318710AF90010
:1029C0007808D03EFB00FF30793DFC00BC2C7A0833
:1029D0000319F62C7B09F8007C09F900F80A0319A1
:1029E000F90A7808F6007908F70008007C08F70073
:1029F0007B08F600080020000D1B08006A08031978
:102A000008009C31D524943175302000B0008E3000
:102A1000B1000330D7005708B2009F318E279431A0
:102A200093302000B0008E30B1000530D700570839
:102A3000B2009F318E2794310A302000B0008F30D1
:102A4000B1007030D7005708B2000630D8005808DF
:102A5000B300903173209431640020008D1B5D2DF4
:102A60006908031D352D0130362D0030D700570879
:102A7000E9006908031D402D0A30B0008F30442D55
:102A80000C302000B0008F30B1007030D7005708F4
:102A9000B2000630D8005808B3009031732094314A
:102AA00005302000D9000F30D800F430D700D70B04
:102AB000572DD80B572DD90B572D973166279431A9
:102AC000003A0319662D81313F21080020000D1BBB
:102AD0002C2D690803192C2DE9019E31E4260800EC
:102AE0009C31E22495312000EE014930B0008E3057
:102AF000B1000330CF004F08B2009F318E279531CF
:102B00009C31CD2495319C31D52495312000670826
:102B100003198E2D64009D31A12595312000D2012D
:102B2000D3015308803ACF0080304F02031D9A2D05
:102B30000B3052020318D22D64008131FE219531F1
:102B400020000D1BB52D9D317F25953107302000CC
:102B5000D1001730D0006F30CF00CF0BAD2DD00B90
:102B6000AD2DD10BAD2D0000080011302000D1009B
:102B70003C30D000DA30CF00CF0BBC2DD00BBC2DB9
:102B8000D10BBC2D01302000D2070030D33D5308BB
:102B9000803ACF0080304F02031DD02D0B305202FF
:102BA000031C9C2D9D312C2595310330F000003005
:102BB000F1009D31D925953154302000B0008E3080
:102BC000B1000330CF004F08B2009F318E270800BC
:102BD00020008D1B08006608031D312E6E080319A6
:102BE000312EEE019C31CD2495319C31E22495317A
:102BF0007F302000B0008E30B1000330B8003808BC
:102C0000B2009F318E27953104302000B80038087B
:102C1000F2000430B9003908F30003309F31472730
:102C200095310430F0000030F1009D31D925953107
:102C30009C31C92495319D317F259531CF302000BD
:102C4000B0008E30B1007030B8003808B2000630E5
:102C5000B9003908B3009031732095312000EA01A2
:102C6000EA0A9C31D524953120006A08031D3A2ECA
:102C700001303B2E0030B8003808EA006A0803191A
:102C8000452E0630B0008F30492ECF302000B000E6
:102C90008E30B1007030B8003808B2000630B9008C
:102CA0003908B30090317320953105302000BA0007
:102CB0000F30B900F430B800B80B5C2EB90B5C2EA5
:102CC000BA0B5C2E08009C31D52496312000D2012D
:102CD000D3015308803ACF0080304F02031D722E7B
:102CE0000B3052020318C72E64008131FE21963149
:102CF00020000D1B812E6A08031D812E9D317F252A
:102D000008002B302000A0000130A100F530A20007
:102D10008E30A3005209CF005309D000CF0A031907
:102D2000D00A4F080A3EA4000030503DA50085316E
:102D3000E82596312B302000B0000130B10038304A
:102D4000CF004F08B2000630D0005008B3009031D9
:102D50009B20963111302000D1003C30D000DA3079
:102D6000CF00CF0BB12ED00BB12ED10BB12E013035
:102D70002000D2070030D33D5308803ACF00803086
:102D80004F02031DC52E0B305202031C742E04305B
:102D9000F0000030F1006430F2000030F3009231B6
:102DA000A622963154302000B0008E30B10003309E
:102DB000CF004F08B2009F318E27080020000C166C
:102DC0008E120E120B30A2002630A1006630A00039
:102DD000A00BE82EA10BE82EA20BE82E00329E31AC
:102DE0008B269631AE309D310125963181309D3153
:102DF00001259631CF309D3101259631A4309D318A
:102E000001259631A6309D310125963120309D3126
:102E10000125963102309D310125963100309D31DA
:102E20000125963110309D3101259631B0309D310C
:102E30000125963140309D3101259631A1309D31DB
:102E400001259631A8309D31012596313F309D31C5
:102E500001259631C8309D3101259631D3309D3101
:102E60000125963100309D3101259631DA309D31B2
:102E70000125963112309D3101259631D5309D3195
:102E80000125963180309D3101259631D9309D3113
:102E900001259631F1309D3101259631DB309D3190
:102EA0000125963140309D31012596318D309D317F
:102EB0000125963114309D3101259631AF309D3179
:102EC000012596310030903100200800EC309D3112
:102ED00090259731003A0319FE2F3F309D31F025A0
:102EE0009731003A0319FC2F20308600013087000B
:102EF00040308400003085000B302000BE001600FA
:102F00001A00BE0B7F2FCB01CC014C08803ABE00CB
:102F100080303E02031D8E2F05304B020318C32F55
:102F20004D302000A0000030A1000130A2008F3001
:102F3000A3004B083F3E8600013087000108BE0019
:102F4000BF013E08A4003F08A5008531E825973160
:102F50004030F0000030F1004D30F2000030F3005E
:102F60009F31B327973101302000CB070030CC3D93
:102F70004C08803ABE0080303E02031DC12F053050
:102F80004B02031C902F0130F0000030F100643040
:102F9000F2000030F3009231A62297316A30F0003F
:102FA0008E30F10040309031242097317008710448
:102FB000031DDC2F01300800EF302000B0008E3000
:102FC000B1000630BE003E08B2009F318E27973117
:102FD0000230F0000030F1009D31D9259731963054
:102FE0002000B0008E30B1000630BE003E08B200B6
:102FF0009F318E27003008000030080000300800A4
:103986006A348E342F309D31012508002E309D314A
:1039960001250800AF309D3101250800AE309D316C
:1039A6000125080090302000E0000130E100080009
:1039B6007708F2007608F1009E3120260800D23002
:1039C600F6008D30F7009C31DB24080040302400DF
:1039D60094003030950092010800F0002000111E7E
:1039E600F12C700823009A000800F00024009513BB
:1039F60070089100141CFD2C11080800F10020002D
:103A06000C128E1271089C31F82420000C16080046
:103A1600F10020000C128E1671089C31F82420004B
:103A26000C160800483023009F0090309D00263079
:103A36009E00CF309B009C0108002000911A292D82
:103A460023009D1C202D1D121D16202D2300190854
:103A560008009C302000B0008E30B1000330B70063
:103A66003708B2009F318E270800F80078089D318C
:103A7600C4259D317604F7007708F40078089D3157
:103A860053250800F100F0013A3071020318512D58
:103A960030307102031C512DF001F00A700C080041
:103AA600F50020008E1375357E399C31F8249D3142
:103AB60074089C31F82420008E170800F900760956
:103AC600F70079089D31C4259D317705F8007808FF
:103AD600F40079089D31532508008B168B172100B9
:103AE60095121512951115149514151520009501AA
:103AF6008B152700981408002000E6019C31D52478
:103B06009D315F302000B0008E30B1000330B70029
:103B16003708B2009F318E270800FD007D08FC00A3
:103B26007C082000B6002630923170229D31003A82
:103B3600031D9F2D01300800003008001D30F600DF
:103B46008E30F7009C31DB249D312000E701973051
:103B5600B0008E30B100B2019F318E2708001230BE
:103B6600F6008E30F7009C31DB249D312030F000CA
:103B76000030F1000F30F2000030F3009231E42201
:103B86000800F20020008E1372357E3980389C3191
:103B9600F8249D312400151200309C31F824F100E0
:103BA6007108F30020008E1773080800FF30F00735
:103BB600FF30F13D700A0319710A03190800153028
:103BC600F4004B30F300D130F200F20BE82DF30B8A
:103BD600E82DF40BE82D0000D92D2000BD003D088E
:103BE60094312B249D31FD007D082000BC003D084A
:103BF600053E86000130870081013C08031D052E25
:103C06000130080000300800700884007108850043
:103C160000087206031908007108F5007008F40020
:103C2600F00A0319F10A7408840075088500120069
:103C3600031D072EF001F1010800F401F5017108DA
:103C4600740784007208753D850012000319080088
:103C56007108740784007208753D850000089C3160
:103C6600F0249E310130F4070030F53D222EF40099
:103C76007408F2007208F300730886008701700862
:103C86008400710885000008C03F890803190800F0
:103C96000130F2007208F3070130F0070030F13D01
:103CA6003F2EF401F501701C5C2E7208F4077308B0
:103CB600F53D0130F235F30D890B5D2E0130F136FD
:103CC600F00C890B622E70087104031D562E7508C0
:103CD600F1007408F00008002000E701E70A9730B9
:103CE600B0008E30B100B2019F318E279E31283050
:103CF600F6008E30F7009C31DB249E31EE30F60064
:103D06008D30F7009C31DB249E319F31032708005C
:103D160020000E120530F2000F30F100F430F000F2
:103D2600F00B932EF10B932EF20B932E20000E1612
:103D36000530F2000F30F100F430F000F00BA12E48
:103D4600F10BA12EF20BA12E0800F50020000C119C
:103D56000A309C31F8249E3175089C31F8249E3136
:103D660071089C31F8249E3120000C150330F400B4
:103D76000830F3007830F200F20BBF2EF30BBF2EA3
:103D8600F40BBF2E08007108F5007008F4007408E3
:103D960084007508850012000319D62E0130F40739
:103DA6000030F53DCA2E7009F2007109F300F20ADF
:103DB6000319F30A74087207F0007508733DF100E1
:103DC60008000030903100209E319D317F259E31C4
:103DD600CF302000B0008E30B1007030B800380807
:103DE600B2000630B9003908B300903173209E3115
:103DF6002000EA016708031908009F31032708001D
:103E06005A302000A0008D30A1001030B0003008DC
:103E1600A2001030B1003108A3003030B2003208E1
:103E2600A4003030B3003308A50090314B209F31F9
:103E360006302000A9008F30AA00AB01AC019F31EB
:103E4600D92708007A302000A0008D30A100083064
:103E5600B2003208A2000830B3003308A3003130A4
:103E6600B4003408A4003230B5003508A5009031FE
:103E76004B209F3120003108AA003008A900AB0171
:103E8600AC019F31D9270800F4009C31C9249F3129
:103E960027309D3101259F3100309D3101259F310D
:103EA60074089D3101259F3173089D3101259F318D
:103EB60072089D3101259F3100309D3101259F31CA
:103EC600FF309D3101259F319C31C5240800F40047
:103ED60020000C110B309C31F8249F3174089C3162
:103EE600F8249F312400151200309C31F8249F31AC
:103EF600F1007108F50020000C150330F3000830BE
:103F0600F2007830F100F10B862FF20B862FF30BBF
:103F1600862F7508080012302000A0008830A10006
:103F26000C30B3003308A2001030B4003408A300EC
:103F36003F30B5003508A4005A30B6003608A50053
:103F460090314B209F3120003108AA003008A9008B
:103F5600AB013208B3003308AC009F31D927080003
:103F66007108F5007008F40074088600750887006B
:103F760001080319CB2F0130F4070030F53DB72FA8
:103F86000130F4070030F53D0130F2070030F33D13
:103F96007408860075088700720884007308850017
:103FA6000008C03F890803190800C32F20002B080A
:103FB600AD002D08AF00290884002A0885001200EC
:103FC600031908002F08AD002D08F8002C08AE00D4
:103FD6002E08F900290884002A08850000088F3178
:103FE6005C279F3120002F086F07AD002D08AF001A
:0A3FF6000130A9070030AA3DDE2FBC
:020000040001F9
:04000E008CFFFFFC68
:00000001FF
